:030000000201A357
:0C01A300787FE4F6D8FD7581400201EA87
:100421000A143F065B4F666D7D077F670920BF8613
:10043100DBCFEDFD87FFE702290014021E00140245
:090441002B00140410000000005F
:10046D008E3B8F3CD3E53C9400E53B9400400AE580
:0A047D003C153C7002153B80EB2299
:0403AB008E2D8F2ED6
:1003AF00752F00753000C3E530952EE52F952D5034
:1003BF0025753100753200C3E532947CE531940028
:1003CF00500A0532E5327002053180EB0530E53019
:0603DF007002052F80D022
:0103E50022F5
:03000B000203E607
:1003E600C0E0C0D075D000C28CB2B2B2B330B1207A
:1003F60030B21030B30D758CFFAF1FC374FF9FF57D
:100406008A8011758CFFAF2CC374FF9FF58A800418
:0B041600C2B3C2B2D28CD0D0D0E03212
:03001B00020102DD
:10010200C0E0C0F0C083C082C0D075D008C28E7F6C
:10011200E87E037D007C00AB13AA12A911A810C3CC
:100122001202F4704F7513007512007511007510EC
:1001320000C28CC2A9C2B3C2B212001E8E298F2A7B
:10014200D3E52A9428E52964809480400675290025
:10015200752A28C37428952AF52CE49529F52B8550
:10016200291E852A1FC3E529648094804026D2A9CE
:10017200D28C8020AF13AE12AD11AC107B017A008D
:1001820079007800EF2BF513EE3AF512ED39F511FF
:10019200EC38F510D28ED0D0D082D083D0F0D0E01F
:0101A200322A
:10030A00C2B3C2B2758911758CFF758AFE758D00EC
:10031A00758B00D2AF12001E8E298F2AD3E52A943C
:10032A0028E529648094804006752900752A28C327
:10033A007428952AF52CE49529F52B85291E852AFA
:10034A001FC3E529648094804004D2A9D28CD2AB21
:05035A00D28E80FE229E
:10044B00753D00753E00C2B07F287E0012046DD250
:10045B00B07F047E0012046D7F237E001203ABD2AB
:01046B00B0E0
:01046C00226D
:04035F008E338F3416
:10036300753500E535C39408503DC2B005360536F2
:1003730005360536053605360536053605360536A2
:1003830005360536053605360536E5341392B0E5F0
:1003930033C313F533E53413F5347F027E001204BF
:0703A3006DD2B0053580BCEE
:0103AA002230
:10022F00753800753900753A00753700E537C39496
:10023F00085027E53AC313F53AC2B00538D2B005D6
:10024F003805380538053830B003433A807F037ED0
:10025F000012046DD2B0053780D2753700E537C371
:10026F0094085027E539C313F539C2B00538D2B019
:10027F00053805380538053830B0034339807F031A
:0F028F007E0012046DD2B0053780D2AE39AF3A7F
:01029E00223D
:10001E00753F0075400012044B7FCC7E0012035FCB
:10002E007F447E0012035F7FEE7E021203AB12044A
:10003E004B7FCC7E0012035F7FBE7E0012035F12E9
:10004E00022FEEC4F854F0C868F53FEFC4540F48C1
:10005E00F540D3E54094B4E53F9400503BAE3FAF3E
:10006E00407C007D6412029F7E007F0ACFCDCFCEF2
:10007E00CCCE12029F74142FF8E6FF8F90AE3FAFD6
:10008E00407C007D0A12029FAF0574142FF8E6FF24
:10009E008FA0AE3FAF402222E540F4FFE53FF4FED5
:1000AE00EF2401F540EE3400F53FC3E49540F540F2
:1000BE00E4953FF53FAE3FAF407C007D6412029F5A
:1000CE007E007F0ACFCDCFCECCCE12029F74202FD2
:1000DE00F8E6FF8F90AE3FAF407C007D0A12029F84
:1000EE00AF0574202FF8E6FF8FA0C3E49540FFE420
:0300FE00953FFE2D
:0101010022DB
:1001AF0002030AE493A3F8E493A34003F68001F259
:1001BF0008DFF48029E493A3F85407240CC8C33351
:1001CF00C4540F4420C8834004F456800146F6DF20
:1001DF00E4800B0102040810204080900421E47E8B
:1001EF00019360BCA3FF543F30E509541FFEE49315
:1001FF00A360010ECF54C025E060A840B8E493A3DC
:10020F00FAE493A3F8E493A3C8C582C8CAC583CA06
:10021F00F0A3C8C582C8CAC583CADFE9DEE780BEBE
:01044A0000B1
:10029F00BC000BBE0029EF8DF084FFADF022E4CC43
:1002AF00F875F008EF2FFFEE33FEEC33FCEE9DEC0C
:1002BF00984005FCEE9DFE0FD5F0E9E4CEFD22ED52
:1002CF00F8F5F0EE8420D21CFEADF075F008EF2F9C
:1002DF00FFED33FD4007985006D5F0F222C398FD8D
:0502EF000FD5F0EA222A
:1002F400EB9FF5F0EA9E42F0E99D42F0EC6480C881
:0603040064809845F02220
:00000001FF
