:030000000201C139
:0C01C100787FE4F6D8FD75813802020852
:1003E4000A0C3F065B4F666D7D077F670918BF8661
:1003F400DBCFEDFD87FFE702210014021600140293
:09040400230014040800000000AC
:100430008E358F36D3E5369400E5359400400AE5D5
:0A0440003615367002153580EB22E8
:040374008E338F3401
:10037800753500753600C3E5369534E53595335047
:1003880025753700753800C3E538947CE537940047
:10039800500A0538E5387002053780EB0536E53632
:0603A8007002053580D053
:0103AE00222C
:03000B000200E907
:1000E900C0E0C0F0C083C082C0D075D000B2B2B247
:1000F900B330B12030B21030B30D758CFFAF17C3D8
:1001090074FF9FF58A8011758CFFAF24C374FF9F1C
:10011900F58A8004C2B3C2B2AF0BAE0AAD09AC080E
:100129007B017A0079007800EF2BF50BEE3AF50A9E
:10013900ED39F509EC38F5087F407E7E7D057C00B8
:10014900AB0BAA0AA909A808C3120312705FC2B3AC
:10015900C2B2750B00750A00750900750800120016
:100169000E8E218F22C3E52164809480500E752361
:10017900007524287516007517018019C3E52294A6
:1001890028E52164809480400C7516007517287540
:100199002300752401C374289522F524E49521F5DB
:1001A90023E5222401F517E5213400F516D0D0D036
:0801B90082D083D0F0D0E032C7
:1003AF00D2B3D2B212000E8E218F22C3742895229F
:1003BF00F524E49521F523E5222401F517E52134F1
:1003CF0000F516758901758CFF758AFED2AFD2A91B
:0503DF00D28C80FE221B
:10040E00753100753200C2B07F287E00120430D2E2
:10041E00B07F047E001204307F237E00120374D25C
:01042E00B01D
:01042F0022AA
:040328008E318F3251
:10032C00753300E533C39408503DC2B00534053431
:10033C0005340534053405340534053405340534E9
:10034C0005340534053405340534E5321392B0E533
:10035C0031C313F531E53213F5327F027E001204FE
:07036C0030D2B0053380BC64
:010373002267
:10024D00753200753300753400753100E531C39496
:10025D00085027E534C313F534C2B00532D2B005CA
:10026D003205320532053230B0034334807F037ED0
:10027D0000120430D2B0053180D2753100E531C3A2
:10028D0094085027E533C313F533C2B00532D2B00D
:10029D00053205320532053230B0034333807F031A
:0F02AD007E00120430D2B0053180D2AE33AF34B0
:0102BC00221F
:10000E00752F0075300012040E7FCC7E001203286F
:10001E007F447E001203287FEE7E021203741204C8
:10002E000E7FCC7E001203287FBE7E0012032812A4
:10003E00024DEEC4F854F0C868FEEFC4540F48FFEA
:10004E00EF24FCF530EE34FFF52FD3E53094B4E514
:10005E002F9400503AAE2FAF307C007D641202BD5B
:10006E007E007F0ACFCDCFCECCCE1202BD740C2F28
:10007E00F8E6FF8F90AE2FAF307C007D0A1202BDE6
:10008E00AF05740C2FF8E6FF8FA0AE2FAF302274A1
:10009E004C2530F53074FF352FF52FAE2FAF307C59
:1000AE00007D641202BD7E007F0ACFCDCFCECCCEB6
:1000BE001202BD74182FF8E6FF8F90AE2FAF307C72
:1000CE00007D0A1202BDAF0574182FF8E6FF8FA04F
:0A00DE00E53024B4FFE52F3400FEE6
:0100E80022F5
:1001CD000203AFE493A3F8E493A34003F68001F296
:1001DD0008DFF48029E493A3F85407240CC8C33333
:1001ED00C4540F4420C8834004F456800146F6DF02
:1001FD00E4800B01020408102040809003E4E47EAB
:10020D00019360BCA3FF543F30E509541FFEE493F6
:10021D00A360010ECF54C025E060A840B8E493A3BD
:10022D00FAE493A3F8E493A3C8C582C8CAC583CAE8
:10023D00F0A3C8C582C8CAC583CADFE9DEE780BEA0
:01040D0000EE
:1002BD00BC000BBE0029EF8DF084FFADF022E4CC25
:1002CD00F875F008EF2FFFEE33FEEC33FCEE9DECEE
:1002DD00984005FCEE9DFE0FD5F0E9E4CEFD22ED34
:1002ED00F8F5F0EE8420D21CFEADF075F008EF2F7E
:1002FD00FFED33FD4007985006D5F0F222C398FD6F
:05030D000FD5F0EA220B
:10031200EB9FF5F0EA9E42F0E99D42F0EC6480C862
:0603220064809845F02202
:00000001FF
